:020000040000FA
:100000000C9464000C948C000C948C000C948C0068
:100010000C948C000C948C000C948C000C94050CAB
:100020000C948C000C948C000C948C000C948C0020
:100030000C948C000C948C000C948C000C948C0010
:100040000C94BB0B0C948C000C94870C0C94610CDE
:100050000C948C000C948C000C948C000C948C00F0
:100060000C94B90C0C948C000000000024002700B4
:100070002A000000000023002600290000000008DC
:10008000000201000003040700000000000000005F
:10009000010204081020408001020408102001021F
:1000A0000408102000000000250028002B00040494
:1000B0000404040404040202020202020303030310
:1000C00003030200D80D741411241FBECFEFD8E033
:1000D000DEBFCDBF24E0A0E4B2E001C01D92A83590
:1000E000B207E1F712E0A0E0B1E0ECE7FEE202C007
:1000F00005900D92A034B107D9F710E0C3E6D0E027
:1001000004C02197FE010E941A15C236D107C9F713
:100110000E949E0E0C9431170C9400008CBD9DBD66
:10012000089596E0899FD0011124AD53BC4F90965D
:100130007C936E935F9791E091969C939197E09159
:100140003004F091310490912F04992339F03097C5
:1001500051F0811108C08091DF030994309719F0A4
:100160005C968C91FACF0895FC01538D448D252F18
:1001700030E0842F90E0821B930B541710F0CF9641
:10018000089501970895FC01918D828D981761F073
:10019000A28DAE0FBF2FB11D5D968C91928D9F5F8A
:1001A0009F73928F90E008958FEF9FEF0895FC0169
:1001B000918D828D981731F0828DE80FF11D858D1C
:1001C00090E008958FEF9FEF0895FC01918D228DAF
:1001D000892F90E0805C9F4F821B91098F73992734
:1001E0000895FC01A48DA80FB92FB11DA35ABF4FCC
:1001F0002C91848D90E001968F739927848FA68926
:10020000B7892C93A089B1898C91837080648C9379
:10021000938D848D981306C00288F389E02D808128
:100220008F7D80830895EF92FF920F931F93CF935A
:10023000DF93EC0181E0888F9B8D8C8D98131AC021
:10024000E889F989808185FF15C09FB7F894EE8908
:10025000FF896083E889F989808183708064808365
:100260009FBF81E090E0DF91CF911F910F91FF90B0
:10027000EF900895F62E0B8D10E00F5F1F4F0F7358
:100280001127E02E8C8D8E110CC00FB607FCFACF13
:10029000E889F989808185FFF5CFCE010E94F100C0
:1002A000F1CFEB8DEC0FFD2FF11DE35AFF4FF082E4
:1002B0009FB7F8940B8FEA89FB8980818062CFCF4A
:1002C000CF93DF93EC01888D8823B9F0AA89BB898D
:1002D000E889F9898C9185FD03C0808186FD0DC078
:1002E0000FB607FCF7CF8C9185FFF2CF808185FF99
:1002F000EDCFCE010E94F100E9CFDF91CF910895BB
:100300008AE193E00E94E50021E0892B09F420E0D6
:10031000822F089580E090E0892B29F00E948001CF
:1003200081110C9400000895833081F028F481300D
:1003300099F08230A9F008958730A9F08830C9F08B
:100340008430B1F4809180008F7D03C08091800063
:100350008F7780938000089584B58F7784BD08954A
:1003600084B58F7DFBCF8091B0008F778093B000F4
:1003700008958091B0008F7DF9CFCF93DF93282F20
:1003800030E0F901E458FF4F8491F901E057FF4F45
:10039000D491F901E255FF4FC491CC23A1F0811112
:1003A0000E949401EC2FF0E0EE0FFF1FEE58FF4F7C
:1003B000A591B491EC91ED2381E090E009F480E007
:1003C000DF91CF91089580E090E0FACF1F93CF9313
:1003D000DF93282F30E0F901E458FF4F8491F901B1
:1003E000E057FF4FD491F901E255FF4FC491CC2360
:1003F000A9F0162F81110E949401EC2FF0E0EE0F6E
:10040000FF1FEC55FF4FA591B4918FB7F894EC9175
:10041000111108C0D095DE23DC938FBFDF91CF91FF
:100420001F910895DE2BF8CFCF93DF9390E0FC016E
:10043000E057FF4F249182559F4FFC018491882300
:10044000C9F090E0880F991FFC01E859FF4FA59172
:10045000B491FC01EC55FF4FC591D49161110DC0D1
:100460009FB7F8948C91209582238C9388812823C0
:1004700028839FBFDF91CF910895623051F49FB7D9
:10048000F8943C91822F809583238C93E8812E2BC6
:10049000EFCF8FB7F894EC912E2B2C938FBFEACF30
:1004A000CF92DF92EF92FF92CF936C018091050182
:1004B000853049F08F3F09F44CC0CF91FF90EF9009
:1004C000DF90CF900895E2ECF0E0C491C7FDF5CF46
:1004D00061E085E00E941402CC2319F0C23009F0DB
:1004E000D9C0F12CE12C60E472E48FE090E0A70128
:1004F00096010E94D914BA01A9014150510961091C
:100500007109C23009F094C092E04F3F5105610576
:10051000710581F07CF060E970ED83E090E0A70167
:1005200096010E94D914BA01A901415051096109EB
:10053000710993E08091B100887F892B8093B1008D
:10054000C13009F4BFC0C23009F4D1C0C111B5CF68
:100550008FC085E080930501E2ECF0E0C491CF3FCD
:1005600009F4ABCFC13021F150F0C23009F43EC0E4
:10057000C7FDA3CF61E085E00E941402AFCF14BC99
:1005800015BC84B5826084BD85B5816085BDE3EB13
:10059000F0E0E491F0E0EE0FFF1FEC55FF4F859186
:1005A0009491E5E9F0E0E491E0930D03C0E090CF91
:1005B0001092800010928100809181008860809369
:1005C000810080918100816080938100E3EBF0E005
:1005D000E491F0E0EE0FFF1FEC55FF4F85919491F1
:1005E000E5E9F0E0E491E0930C0372CF1092B000E3
:1005F0001092B1008091B00082608093B000809131
:10060000B10081608093B100E3EBF0E0E491F0E0B1
:10061000EE0FFF1FEC55FF4F8591949190930B03C4
:1006200080930A03E5E9F0E0E491E093090350CFF9
:100630004F3F510561057105A1F09CF068E478EE2B
:1006400081E090E0A70196010E94D914BA01A901A6
:10065000415051096109710994E0C1116BCF93E0D8
:1006600003C092E0C11166CF85B5887F892B85BD17
:1006700047BD8FEF9FEFDC01809316039093170324
:10068000A0931803B093190380916E008260809349
:100690006E0013CF960150E040E060E072E18AE71F
:1006A00090E00E94D914BA01A90141505109610991
:1006B0007109C13009F044CF80918100887F816049
:1006C0008093810050938900409388008FEF9FEFC3
:1006D000DC018093120390931303A0931403B0934F
:1006E000150380916F00826080936F00E6CE409387
:1006F000B3008FEF9FEFDC0180930E0390930F0305
:10070000A0931003B09311038091700082608093D6
:100710007000D3CE3FB7F894809105039091060303
:10072000A0910703B091080326B5A89B05C02F3FF1
:1007300019F00196A11DB11D3FBFBA2FA92F982F07
:100740008827BC01CD01620F711D811D911D42E002
:10075000660F771F881F991F4A95D1F708958F92CA
:100760009F92AF92BF92CF92DF92EF92FF924B0196
:100770005C010E948A036B017C010E948A036C1950
:100780007D098E099F09683E734081059105A8F394
:1007900021E0821A9108A108B10888EEC80E83E012
:1007A000D81EE11CF11C81149104A104B10429F7A5
:1007B000FF90EF90DF90CF90BF90AF909F908F9081
:1007C00008952FB7F894609101037091020380910E
:1007D0000303909104032FBF08950F931F93CF93AA
:1007E000DF93C82FD62F86E0C89FF0011124ED5368
:1007F000FC4F11A2878D90A181309105F1F058F046
:1008000082309105F1F1039709F440C0DF91CF9157
:100810001F910F9108956623C9F361E070E08C2F5A
:100820000E9491000E94E10360931B0470931C04DA
:1008300080931D0490931E04E9CF0E94E103009170
:100840001B0410911C0420911D0430911E04AB0167
:10085000BC01401B510B620B730B80912D049091D6
:100860002E04B0E0A0E084179507A607B70748F468
:1008700062E070E08C2FDF91CF911F910F910C946B
:10088000910063E070E0D111C1CFF4CF70E060E07F
:10089000F1CF862F642F0C941402862F642F0C94B2
:1008A000E601862F0C94BD010895089590910501ED
:1008B00089130BC0E2ECF0E0E4919FEF9093050107
:1008C000E13049F028F0E23061F060E00C94E6019C
:1008D00010926E00FACF90916F009D7F90936F0001
:1008E000F4CF909170009D7F9093700091E0909371
:1008F000B0009091B100987F94609093B1001092F5
:10090000B300E3CFAF92BF92CF92DF92EF92FF920C
:100910000F931F93CF93DF936C017B018B01040F27
:10092000151FEB015E01AE18BF08C017D10759F0C3
:100930006991D601ED91FC910190F081E02DC60105
:100940000995892B79F7C501DF91CF911F910F91FF
:10095000FF90EF90DF90CF90BF90AF9008952091DF
:10096000A802260F3327331F21323105ECF42091E2
:10097000CC02FC0190E080E0243069F082E0089530
:10098000A091A8022191AC0148575D4FA40FB52F4B
:10099000B11D2C930196861798F38091A802680FD9
:1009A0006093A80280E0089581E008951092CC023F
:1009B00081E08093CE021092CD0261E082E10E943C
:1009C000E60161E083E10E94E601E9EBF0E080816D
:1009D0008E7F808380818D7F808388E48093B800C0
:1009E00085E48093BC000895CF93DF9391E09093CA
:1009F00087028823B9F0C091B800D091BA008091E5
:100A0000BC008A7B8093BC0060E082E10E94E6012A
:100A100060E083E10E94E6010E94D604D093BA0010
:100A2000C093B800DF91CF9108950895E091F90245
:100A30008091F802E81730F4F0E0EE59FD4F808124
:100A400090E008958FEF9FEF08959091F9028091C3
:100A5000F8022FEF3FEF981748F4E92FF0E0EE5936
:100A6000FD4F208130E09F5F9093F902C901089506
:100A70008091F8029091F902891B990B0895CF9209
:100A8000DF92EF92FF920F931F93CF93DF937C013E
:100A9000CB018A0120916102222389F0EB016B01D5
:100AA000C40ED51ECC15DD0569F06991D701ED9115
:100AB000FC910190F081E02DC7010995F3CF642FDF
:100AC0000E94AF04C801DF91CF911F910F91FF9059
:100AD000EF90DF90CF900895CF93DF931F92CDB723
:100AE000DEB76983209161022223F9F02091F6029A
:100AF000203258F021E030E0FC013383228390E083
:100B000080E00F90DF91CF9108958091F702E82F58
:100B1000F0E0EF5BFD4F998190838F5F8093F70248
:100B20008093F60281E090E0ECCF61E0CE01019687
:100B30000E94AF04F7CFCF92DF92EF92FF920F9314
:100B40001F93CF93DF93FC01C48121E020936102C6
:100B5000C09340021092F7021092F6028385682B30
:100B600087EB93E00E946C05D091F602D13208F039
:100B700092C00E948A036B017C018091CC0281119A
:100B800065C082E08093CC0281E08093CE028FEF3B
:100B90008093CB021092F002D093EF02A1E4B2E076
:100BA000EFECF2E080E0D81385C01092F102809162
:100BB000F102CC0FC82BC093F1028091CD0281309D
:100BC00009F07CC01092CD020E948A036B017C0167
:100BD0008091F1028093BB00809183029091840206
:100BE000A0918502B0918602892B8A2B8B2B99F0DC
:100BF0000E948A0300918302109184022091850251
:100C0000309186026C197D098E099F090617170716
:100C100028073907E0F18091BC0083FDD9CF85EC2E
:100C20008093BC000E948A036B017C018091CC02FE
:100C3000823009F445C08091CB028F3F61F18091F1
:100C4000CB02803241F18091CB0225C0809183029A
:100C500090918402A0918502B0918602892B8A2B03
:100C60008B2B09F48ACF0E948A0300918302109192
:100C7000840220918502309186026C197D098E09CB
:100C80009F09061717072807390708F076CF8091C4
:100C900082020E94F4041092F7021092F60210925F
:100CA0006102DF91CF911F910F91FF90EF90DF9044
:100CB000CF9008959D9191938F5F75CF85EEB0CFC2
:100CC0008091830290918402A0918502B091860266
:100CD000892B8A2B8B2B09F4A9CF0E948A030091C0
:100CE00083021091840220918502309186026C1952
:100CF0007D098E099F09061717072807390708F08D
:100D000095CFC5CF089590E080E00895BC016E5F57
:100D10007F4FDC01ED91FC910190F081E02D40E0EE
:100D2000099591E0811190E0892F089508958EBD75
:100D300000000DB407FEFDCF8EB50895DF92EF924F
:100D4000FF920F931F93CF93DF937C01062FD42E36
:100D5000152F80E590E00E948E0060E0F701868507
:100D60000E94E60182E10E949706CD2DD12F0C0F43
:100D70001D2F111DC017D10721F089910E949706E0
:100D8000F9CF61E0F7018685DF91CF911F910F9137
:100D9000FF90EF90DF900C94E6011F93CF93DF93C9
:100DA000EC01162F80E590E00E948E0060E08E85B9
:100DB0000E94E601812F80680E94970680E00E94D1
:100DC0009706182F61E08E850E94E601812FDF9142
:100DD000CF911F9108950F931F93CF93DF93EC0151
:100DE000062F142F80E590E00E948E0060E08E8533
:100DF0000E94E601802F0E949706812F0E9497068D
:100E000061E08E85DF91CF911F910F910C94E601E7
:100E1000CF92DF92EF92FF920F931F93CF93DF93C6
:100E2000EC016B01F42E890140E062E00E94EB06C8
:100E300044E06AE0CE010E94EB0640E864E1CE01A6
:100E40000E94EB06A6016F2DCE010E949E0643E094
:100E500062E0CE010E94EB060E94E1036B017C017F
:100E600029E5C20ED11CE11CF11C6AE0CE010E94F2
:100E7000CD0682FF1BC040E062E0CE010E94EB067F
:100E800064E4CE010E94CD06F801808362E4CE01C5
:100E90000E94CD06F801818380E0DF91CF911F9100
:100EA0000F91FF90EF90DF90CF9008950E94E103A3
:100EB0006C157D058E059F05C0F283E0EECF2F9265
:100EC0003F924F925F926F927F928F929F92AF92DA
:100ED000CF92DF92EF92FF920F931F93CF93DF9306
:100EE00000D0CDB7DEB74C012B01D42E390180E004
:100EF000E114F10411F0F70180813C2C329490EF61
:100F00003922380E40E062E0C4010E94EB064FE750
:100F100068E0C4010E94EB0640E864E1C4010E945D
:100F2000EB06A2016D2DC4010E949E06432D6AE1CD
:100F3000C4010E94EB064CE062E0C4010E94EB0693
:100F40006AE1C4010E94CD06482F40686AE1C401ED
:100F50000E94EB060E94E1031B012C01F4E22F0E1C
:100F6000311C411C511C68E0C4010E94CD06982F21
:100F7000907309F0B7C080FF15C083E00F900F9009
:100F8000DF91CF911F910F91FF90EF90DF90CF9065
:100F9000AF909F908F907F906F905F904F903F9019
:100FA0002F9008950E94E10362157305840595054D
:100FB000D0F2E3CF6114710409F469C00115110581
:100FC00009F465C064E1C4010E94CD06382EF80121
:100FD0008081831508F480C030823320E1F180E500
:100FE00090E00E948E0060E0F40186850E94E60198
:100FF0003A9482E90E949706CC20B1F08FEF90E0FE
:101000009C0102C0220F331FCA94E2F7690182E9F2
:101010000E9497069C2D9095F301208192238C21AC
:10102000982B9083CC24C39423014C0C511CC314E3
:1010300040F482E90E949706F20181932F01C39444
:10104000F6CF80E00E949706F201808361E0F40110
:1010500086850E94E60168E1C4010E94CD06877082
:10106000E114F10411F0F701808323FC37C061140F
:101070007104B1F10115110599F1AA2089F1F80166
:101080004081413031F4843029F58FEF77CF80E013
:10109000ECCF4230F8F081111DC042509E012F5F0D
:1010A0003F4FB301C4010E940807811167CFF801C7
:1010B0009081690E711CF301329720819981291367
:1010C00009C0F1E06F1A7108F30120819A81291794
:1010D00009F454CF87E052CF84E050CF82E04ECF66
:1010E00080E04CCF6CE0C4010E94CD06282E8371B5
:1010F00009F460CF81E042CF8F929F92AF92CF925E
:10110000EF92FF920F931F93CF93DF9300D000D005
:101110001F92CDB7DEB74C0182E08D8340E064E2E0
:10112000C4010E94EB0640E066E2C4010E94EB06A7
:1011300046E268E4C4010E94EB0686E28B838D815F
:101140008230D8F16CE1C4010E94CD06482F4F7760
:101150006CE1C4010E94EB0687E08C83A12CC12CBA
:10116000CE0104967C018E010B5F1F4F9E012F5F05
:101170003F4F41E0BE016D5F7F4FC4010E945F079A
:10118000982F811117C08D818230B9F48C81811123
:1011900014C081E00F900F900F900F900F90DF918F
:1011A000CF911F910F91FF90EF90CF90AF909F90B4
:1011B0008F90089581E0923069F380E0EBCF2F9219
:1011C0003F924F925F926F927F928F929F92AF92D7
:1011D000BF92CF92DF92EF92FF920F931F93CF9324
:1011E000DF93CDB7DEB72D970FB6F894DEBF0FBEF5
:1011F000CDBF16E0413508F04AC1342E3B014C0109
:101200006CE10E94CD06482F4F776CE1C4010E942B
:10121000EB0683E98983332029F081E0F301908193
:10122000953008F480E022242394B12C9B2D990F53
:10123000990F990FD32CD91AD7FCD12C32E08823DF
:1012400019F098E89B8333E021E09D2D977009F415
:1012500020E09D2D959595959595290FC9F094E0E1
:10126000811193E0291708F4922FEB2DF0E03196CD
:10127000E60DF71D232F4191A1E0B0E0AC0FBD1F9B
:10128000A20FB11D4C932F5F422F431B491798F3B8
:10129000882311F0F8E0DF0E8FE18D150CF082C08D
:1012A00090E79A838B819C8189279D8189279E81E4
:1012B00089278F839E01285F3F4F47E0BE016F5F04
:1012C0007F4FC4010E940807182F8111E0C01A86C1
:1012D000E3E0EB87DC86CE0107962C0199E09D8741
:1012E000CA844C2D4295407F4C0D6AE1C4010E9496
:1012F000EB06A12CCE010A967C018E01055F1F4FE3
:1013000092014D85BE016F5F7F4FC4010E945F0750
:10131000182F823009F065C06CE1C4010E94CD062F
:1013200085FDB5C08F7109F480E2282F30E04D2D86
:10133000DD0C550B421753070CF09DC0D82EE82F3B
:10134000E595E595E595EF5F982F977081E009F4B5
:1013500080E0E80F81E090E08C0F9D1F8E0F911DC3
:10136000FC01215031092770332781E090E002C051
:10137000880F991F2A95E2F79C018081822B808338
:101380008BCF85E98983332031F081E0F3019081AF
:10139000983008F04BCF80E049CF87E9898326E079
:1013A000B22EF9CF9D2D97709A878D2D85958595B5
:1013B00085958E5F282F2295207F290F2A8321E093
:1013C000911101C020E0280F2D8744244394512C13
:1013D0004C0E5D1E480E511CE9E0E81BEB87DC86D5
:1013E0007FCF811154C080E2D82E9C8590320CF4BE
:1013F00057CF8B81883809F040C083E093E0EB2D14
:10140000F0E03196E60DF71D980FA1E0B0E0AC0FCB
:10141000BD1FA80FB11D2C9121938F5F8913F5CFAC
:10142000BB84E3E0BE124DC08A8581114AC09E0193
:101430002D5F3F4F41E0B201C4010E940807182F01
:10144000811125C09B81F201818198133CC09C8150
:101450008281981338C0808182FF12C02394F2E009
:101460002F1609F48ECF83E0281609F496CF91E069
:10147000291609F4CECE15E00AC082E094E0BFCF71
:10148000F3018387822D880F820D8F5F8083812FE8
:101490002D960FB6F894DEBF0FBECDBFDF91CF9172
:1014A0001F910F91FF90EF90DF90CF90BF90AF9082
:1014B0009F908F907F906F905F904F903F902F9074
:1014C000089511E0E4CF17E0E2CF0F931F93CF937D
:1014D0008C01C62F0E949B056C2F6460C8010E947E
:1014E0009B056C2F6B7FC8010E949B0583EC90E0ED
:1014F0000197F1F7CF911F910F9108950F931F93CB
:10150000CF93DF938C01D62FC42F607F642B0E9472
:10151000650A80E1D89FB00111246C2BC801DF91CE
:10152000CF911F910F910C94650ACF93DF93CDB7A4
:10153000DEB728970FB6F894DEBF0FBECDBF98E098
:10154000E4E2F1E0DE01119601900D929A95E1F747
:1015500090915004961708F46FEF262F30E0220F79
:10156000331F41E050E04C0F5D1F240F351FF90180
:101570006081680F606840E088E494E028960FB6C8
:10158000F894DEBF0FBECDBFDF91CF910C947E0AE1
:1015900040E061E088E494E00E947E0A8BE39FE1F2
:1015A0000197F1F7089541E00E947E0A81E090E002
:1015B0000895FC0101900020E9F73197AF01481B25
:1015C000590BBC0188E494E00C948204FC018081F6
:1015D0009181009711F00C94BC1508950F931F93FF
:1015E000CF93DF93EC0188819981009759F02A818C
:1015F0003B812617370730F081E0DF91CF911F91B3
:101600000F9108958B016F5F7F4F0E9445160097E1
:1016100059F0998388831B830A832C813D81232B76
:1016200059F7FC011082E8CF80E0E7CFEF92FF92FC
:101630000F931F93CF93DF93FB01E080F180E114C0
:10164000F10441F480E0DF91CF911F910F91FF9061
:10165000EF9008950481158101151105B1F0EC0199
:101660008C819D81080F191FB801CE010E94EE0ADE
:10167000882341F3288139818C819D81B701820FB4
:10168000931F0E941C171D830C8381E0DCCFEF9217
:10169000FF920F931F93CF93DF93EC017B018A019D
:1016A000BA010E94EE0A28813981811114C02115E6
:1016B000310519F0C9010E94BC15198218821D82DA
:1016C0001C821B821A82CE01DF91CF911F910F9154
:1016D000FF90EF9008951D830C83B701C9010E940C
:1016E0001C17F1CFFC011182108213821282158225
:1016F0001482FB0101900020E9F73197AF01461BEE
:10170000570B0C94470B85ED8093BC0080918302AE
:1017100090918402A0918502B09186020796A11D46
:10172000B11D23E0B695A795979587952A95D1F792
:101730002091BC0024FD03C01092CC02089540917A
:101740008302509184026091850270918602452B3C
:10175000462B472B69F30097A105B10541F02AE21A
:101760002A95F1F700C00197A109B109E1CF809155
:1017700082020C94F4041F920F920FB60F92112460
:101780002F933F938F939F93AF93BF9380910103C8
:1017900090910203A0910303B091040330910003E0
:1017A00023E0230F2D3758F50196A11DB11D20937D
:1017B00000038093010390930203A0930303B0936B
:1017C00004038091050390910603A0910703B09153
:1017D00008030196A11DB11D809305039093060394
:1017E000A0930703B0930803BF91AF919F918F918E
:1017F0003F912F910F900FBE0F901F90189526E8E4
:10180000230F0296A11DB11DD2CF1F920F920FB6CA
:101810000F9211242F933F934F935F936F937F9376
:101820008F939F93AF93BF93EF93FF9380910E039A
:1018300090910F03A0911003B0911103892B8A2B73
:101840008B2BD1F190910903E0910A03F0910B03E6
:1018500080818927808380910E0390910F03A0914E
:101860001003B0911103181619061A061B069CF4F2
:1018700080910E0390910F03A0911003B09111037A
:101880000197A109B10980930E0390930F03A093D0
:101890001003B0931103FF91EF91BF91AF919F910E
:1018A0008F917F916F915F914F913F912F910F9009
:1018B0000FBE0F901F901895809105010E9456044D
:1018C000EACF1F920F920FB60F9211242F933F93DE
:1018D0004F935F936F937F938F939F93AF93BF9338
:1018E000EF93FF938AE193E00E94F100FF91EF9163
:1018F000BF91AF919F918F917F916F915F914F9128
:101900003F912F910F900FBE0F901F9018951F922F
:101910000F920FB60F9211242F938F939F93EF93F3
:10192000FF93E0912A03F0912B038081E091300333
:10193000F091310382FD1BC09081809133038F5F52
:101940008F7320913403821741F0E0913303F0E06C
:10195000E65EFC4F958F80933303FF91EF919F914B
:101960008F912F910F900FBE0F901F90189580812F
:10197000F4CF1F920F920FB60F9211242F933F9323
:101980004F935F936F937F938F939F93AF93BF9387
:10199000EF93FF938091B900887F803609F44AC0A5
:1019A000F0F5883209F4A7C018F5803109F49BC01E
:1019B000B8F4882309F4F9C0883009F494C0FF9181
:1019C000EF91BF91AF919F918F917F916F915F91B7
:1019D0004F913F912F910F900FBE0F901F90189530
:1019E000883109F488C0803251F78093CB0214C04B
:1019F000803409F49DC040F48033B9F38833F9F69C
:101A00008093CB0285ECB0C0803509F485C0883561
:101A100009F496C0883499F60E94830BD0CF883998
:101A200009F48CC038F5883729F050F4883611F065
:101A3000803729F683E08093CC021092CA0257C007
:101A4000883809F47BC0803919F0803809F0B7CFA5
:101A50008091CA02803208F071C0E091CA0281E030
:101A60008E0F8093CA028091BB00F0E0E655FD4FD7
:101A700080833DC0803B39F0E0F4803A09F479C0BE
:101A8000883A09F09CCF84E08093CC021092A9029E
:101A90001092A802E091F402F091F502099580916C
:101AA000A80281110FC081E08093A80210928802E1
:101AB00009C0803C09F4A6CF883C09F4A3CF883B39
:101AC00009F07DCFE091A90281E08E0F8093A902F9
:101AD000F0E0E857FD4F80818093BB009091A90210
:101AE0008091A80229C08091F1028093BB0085EC0F
:101AF0008093BC0064CF9091F0028091EF02981720
:101B000058F5E091F00281E08E0F8093F002F0E052
:101B1000E153FD4F8081E9CFE091F00281E08E0F2B
:101B20008093F0028091BB00F0E0E153FD4F808391
:101B30009091F0028091EF029817C8F285E8D8CF13
:101B4000E091F00281E08E0F8093F0028091BB0063
:101B5000F0E0E153FD4F80838091CE0281115CCF94
:101B600081E08093CD0284EA8093BC001092CC0285
:101B700026CF85EC8093BC001092CC028091CA02E3
:101B8000803230F4E091CA02F0E0E655FD4F108259
:101B90006091CA0270E0E091F202F091F3028AEAE9
:101BA00092E009951092CA020ACF1092CB0234CF6C
:101BB00010921D0310921C0388EE93E0A0E0B0E0A9
:101BC00080931E0390931F03A0932003B0932103DF
:101BD00020E331E030931B0320931A0325EC30E01F
:101BE000309327032093260324EC30E0309329031D
:101BF0002093280320EC30E030932B0320932A031A
:101C000021EC30E030932D0320932C0322EC30E0C4
:101C100030932F0320932E0326EC30E030933103D2
:101C20002093300310923303109234031092350343
:101C3000109236031092BA031092B9038093BB033B
:101C40009093BC03A093BD03B093BE0382E491E0E4
:101C50009093B8038093B70310924B0410924A04F8
:101C600088E691E0909349048093480487E280934A
:101C70004C0480E18093510482E0809352041092DE
:101C800053048EE591E090933904809338048AE000
:101C90008093460489E08093470460E771E082E323
:101CA00094E00E94720B1092C5031092C903109227
:101CB000C8031092CA0384E591E09093C403809313
:101CC000C303EFEDF3E0108214821382158236967F
:101CD00084E0EB31F807B9F78AE091E090932604AD
:101CE0008093250486E091E0909328048093270454
:101CF00084E08093290480932A048EE091E09093FD
:101D00002404809323048AE090E090932C04809331
:101D10002B0484EF91E090932E0480932D04109275
:101D200031041092300410921F041092200410927B
:101D300021041092220410922F040895CF93DF9370
:101D4000CDB7DEB766970FB6F894DEBF0FBECDBF36
:101D5000789484B5826084BD84B5816084BD85B586
:101D6000826085BD85B5816085BD80916E00816092
:101D700080936E0010928100809181008260809338
:101D8000810080918100816080938100809180003A
:101D90008160809380008091B10084608093B10065
:101DA0008091B00081608093B00080917A0084605F
:101DB00080937A0080917A00826080937A0080918B
:101DC0007A00816080937A0080917A0080688093A5
:101DD0007A001092C1001092F9021092F80210924B
:101DE000F7021092F6020E94D60484E594E09093E4
:101DF000F5028093F40285E594E09093F3028093DA
:101E0000F20210924D0480915204823018F098E052
:101E100090934D048093500462E370E080E090E082
:101E20000E94AF036091530488E494E00E949B05F4
:101E300068EE73E080E090E00E94AF0360E388E426
:101E400094E00E94650A0BE416E4C8010197F1F7DB
:101E500060E388E494E00E94650AC8010197F1F705
:101E600060E388E494E00E94650A83E592E00197CC
:101E7000F1F760E288E494E00E94650A60914D0405
:101E8000606240E088E494E00E947E0A84E08093EF
:101E90004E0440E06CE088E494E00E947E0A0E94D8
:101EA000C80A82E080934F0440E066E088E494E052
:101EB0000E947E0A40E062E088E494E00E947E0A8C
:101EC0008BE39FE10197F1F788E08093530460E092
:101ED00088E494E00E949B051FB7F8948091FA0271
:101EE000811127C0E8EBF0E08491EAE9F0E09491F9
:101EF000E82FF0E0EE0FFF1FE859FF4FA591B491D6
:101F0000EC91E92321F461E08AE00E94E60161E0BE
:101F10008AE00E9414028CB580618CBD8CB580640F
:101F20008CBD61E08DE00E94140261E08BE00E94B4
:101F300014028091FA028F5F8093FA021FBF61E062
:101F4000809146040E94140261E0809146040E9440
:101F5000E601809147048F3F09F4F6C060E00E94DB
:101F60001402809147040E94BD01892B09F0ECC046
:101F700061E0809147040E94140260E08091470470
:101F80000E94E60183E090E00197F1F761E0809123
:101F900047040E94E60162E370E080E090E00E9466
:101FA000AF0340E064E288E394E00E94EB0640E087
:101FB00066E288E394E00E94EB0646E268E488E388
:101FC00094E00E94EB0640E864E588E394E00E9418
:101FD000EB0649EA66E588E394E00E94EB0643E0FD
:101FE00068E588E394E00E94EB0648EE6AE588E342
:101FF00094E00E94EB0640E46AE288E394E00E94E9
:10200000EB064DE362E288E394E00E94EB0668E2AF
:1020100088E394E00E94CD06982F9370933039F0B6
:10202000482F436068E288E394E00E94EB0661E099
:1020300085E00E9414020E94C80A60E080E00E94CD
:10204000950A81E891E00E94D90A61E080E00E944F
:10205000950A82E991E00E94D90A68E873E180E07C
:1020600090E00E94AF03412C512C320143948E0129
:102070000F5F1F4F80910401882309F436C10E942D
:10208000C80A60E080E00E94950A84EA91E00E941C
:10209000D90A88E394E00E947C08882309F4E1C30C
:1020A00088E394E00E948606982E882309F4D9C319
:1020B00060E871E0CE0140960E94720BD12C8091B5
:1020C0003A04D81608F057C08D2D90E09C01285C8A
:1020D0003B4F7901F90183816CE771E0803110F0A9
:1020E0006FE771E0C8010E94720BB801CE01409603
:1020F0000E94160BC8010E94E60AF70183811B8625
:102100001A861D861C861F861E8640E1B80190E057
:102110000E947814F80101900020E9F73197AF018F
:10212000401B510BB801CE010A960E94470BBE011D
:10213000665F7F4FCE0140960E94160BCE010A9635
:102140000E94E60AD394BBCF4FE062E088E394E0BC
:102150000E94EB0613E062E370E080E090E00E94F2
:10216000AF0362E088E394E00E94CD0684FF19CFBC
:10217000115089F716CFE888F988E114F10471F05D
:10218000F70181917F01882349F0082E000C990BFB
:102190000E940217F70131978083F2CFCC88DD8847
:1021A000AA24A394B12CC114D10421F05601CC244B
:1021B000C394D12C1A8219821C821B821E821D821A
:1021C00050E040E060E871E0C8010E94470BEC88F5
:1021D000FD88CE14DF0410F5AE14BF0408F47501B9
:1021E000E889F989EE0DFF1DB08010826889798930
:1021F0006C0D7D1D6115710561F1FB0101900020E1
:10220000E9F73197AF01461B570BC8010E94470BF6
:1022100088899989E80EF91EF701B0822D813E81E7
:1022200080913604909137042817390771F5898118
:102230009A8160913204709133040097B9F061156E
:10224000710509F088C0232B09F1FC01808190E021
:1022500018C089819A81009711F00E94BC151A82DA
:1022600019821E821D821C821B82D2CF61157105CC
:1022700069F0232B59F0FB01808190E091958195C5
:10228000910999249394892B09F0912CC8010E94FB
:10229000E60A992009F462C00E94C80A80ED97E01E
:1022A0000E94500268EC70E080E090E00E94AF0372
:1022B00085E00E94560483EB91E00E94D90A68EE03
:1022C00073E080E090E00E94AF030E94C80A84ECB3
:1022D00091E00E94D90A61E080E00E94950A109284
:1022E0000401CE0140960E94E60AF0910401FE8BA3
:1022F000F111B7C281E080932F040E94E103C090E6
:102300001F04D0902004E0902104F0902204AB013F
:10231000BC014C195D096E097F0980912B049091D5
:102320002C04B0E0A0E084179507A607B70708F0D3
:10233000A5C2F12C80912904F81608F0C2C0E091E2
:102340002504F0912604EF0DF11D62E080810E94CA
:102350001402F394EFCF0E94131793CF80ED97E010
:102360000E94500268EC70E080E090E00E94AF03B1
:1023700085E00E9456040E94C80A60E080E00E9446
:10238000950A8FEC91E00E94D90A6AEF70E080E034
:1023900090E00E94AF0360E08AE00E94950A88E224
:1023A00092E00E94D90A6AEF70E080E090E00E941B
:1023B000AF0360E08BE00E94950A88E292E00E9401
:1023C000D90A6AEF70E080E090E00E94AF0360E01D
:1023D0008CE00E94950A88E292E00E94D90A6AEF96
:1023E00070E080E090E00E94AF030E94C80A60E0C5
:1023F00080E00E94950A8FEC91E00E94D90A6AEF72
:1024000070E080E090E00E94AF0360E08AE00E940C
:10241000950A88E292E00E94D90A6AEF70E080E0B3
:1024200090E00E94AF0360E08BE00E94950A88E292
:1024300092E00E94D90A6AEF70E080E090E00E948A
:10244000AF0360E08CE00E94950A88E292E00E946F
:10245000D90A0E94C80A60E080E00E94950A8AEDCD
:1024600091E00E94D90A88E893E10E94500260E955
:1024700071E080E090E00E94AF0385E00E94560486
:1024800060E273E080E090E00E94AF030E94C80A1F
:1024900060E080E00E94950A88EE91E00E94D90AEF
:1024A00061E080E00E94950A86EF91E00E94D90ADF
:1024B00060ED77E080E090E00E94AF030E94C80AE0
:1024C00010CF312C80912A04381608F062C0E32C1A
:1024D000F12CE0912704F0912804EE0DFF1D61E03E
:1024E00080810E941402E0912704F0912804EE0DEF
:1024F000FF1D60E080810E94E601D301C201032C30
:1025000004C0880F991FAA1FBB1F0A94D2F74C0161
:102510005C01A094B094212C80912904281610F518
:10252000C22CD12CE0912504F0912604EC0DFD1D68
:1025300080810E94BD0196012C5F3F4FF901EE0F93
:10254000FF1FED53FC4F892B41F480819181882935
:102550009929918380832394DFCF808191818A217F
:102560009B21F7CFE0912704F0912804EE0DFF1D89
:1025700061E080810E94E601809127049091280407
:10258000E80EF91E60E0F70180810E941402339486
:1025900099CF93ECE92E93E0F92EF701878D90A166
:1025A000892B31F4148E2FEF3FEF368F258F11A238
:1025B000369633E0EF3FF30789F7B12C8091290479
:1025C000B81608F053C0A12CCB2CD12CCC0CDD1CA0
:1025D000C60185539C4F6C0120912A04A21608F075
:1025E00043C0F601608171810A2C02C0769567951F
:1025F0000A94E2F7B29E900111242A0D311DE3ECFA
:10260000F3E080E0458D568D2417350709F46AC143
:102610008F5F36968A30B1F760FF24C0E3ECF3E0B9
:1026200090E080E0448D411118C0E0912304F091C6
:102630002404E20FF31F408156E0589FF001599F98
:10264000F00D1124ED53FC4F448F368F258F10A2CF
:10265000178E61E00E94ED0305C0019636968A3020
:10266000910501F7A394B8CFB394A8CFF70181A146
:1026700081118E8BF6E0EF0EF11C2FEFE21623E0B6
:10268000F206A1F70E94E10360931F0470932004F7
:102690008093210490932204E091FF023E8933232A
:1026A00009F4ECC08091E403882309F4E7C0809129
:1026B000E2039091E303019709F0E0C08091DF030A
:1026C0008111DFC08091FF02843009F0CAC068EC3C
:1026D00070E080E090E00E94AF0344E050E060E0F2
:1026E00071E08BEF92E00E942317892B09F0D6C08E
:1026F0000E94C80A85E092E00E94D90A80ED97E026
:102700000E94500268EC70E080E090E00E94AF030D
:1027100085E00E94560464EF71E080E090E00E9442
:10272000AF030E94C80A60E080E00E94950A8FEC27
:1027300091E00E94D90A6AEF70E080E090E00E9488
:10274000AF0360E08AE00E94950A88E292E00E946E
:10275000D90A6AEF70E080E090E00E94AF0360E089
:102760008BE00E94950A88E292E00E94D90A6AEF03
:1027700070E080E090E00E94AF0360E08CE00E9497
:10278000950A88E292E00E94D90A6AEF70E080E040
:1027900090E00E94AF030E94C80A60E080E00E94BF
:1027A000950A8FEC91E00E94D90A6AEF70E080E010
:1027B00090E00E94AF0360E08AE00E94950A88E200
:1027C00092E00E94D90A6AEF70E080E090E00E94F7
:1027D000AF0360E08BE00E94950A88E292E00E94DD
:1027E000D90A6AEF70E080E090E00E94AF0360E0F9
:1027F0008CE00E94950A88E292E00E94D90A64EF78
:1028000071E080E090E00E94AF030E94C80A60E09F
:1028100080E00E94950A83E192E00E94D90A61E07B
:1028200080E00E94950A8FE192E00E94D90A80ED33
:1028300097E00E9450026CEB72E080E090E00E9412
:10284000AF0385E00E94560460ED77E080E090E001
:102850000E94AF030E94C80A1092FF0281E0809399
:10286000040180E090E0892B09F404CC0E948001EF
:10287000882309F4FFCB0E940000F9CB10922F04AB
:1028800021CF91E09E0F9093FF02F0E0E550FD4FC5
:10289000808383E092E00E94D90A14CF0E94C80A84
:1028A00060E080E00E94950A8AE292E00E94D90AE4
:1028B00061E080E00E94950A84E392E00E94D90AD8
:1028C00088E893E10E94500264EF71E080E090E0BC
:1028D0000E94AF0385E00E94560468EB7BE080E035
:1028E00090E0B6CF6170B6CE82E394E00C94E60A35
:1028F000BB27FB015527AA27880F991FAA1FA417DA
:1029000010F0A41B83955051B9F7A05DAA3308F0CD
:10291000A95DA193009779F7B111B1931192CB0101
:102920000C949214DC01FC01672F71917723E1F77D
:10293000329704C07C916D9370836291AE17BF078C
:10294000C8F308952F923F924F925F926F927F92B9
:102950008F929F92AF92BF92CF92DF92EF92FF92AF
:102960000F931F93CF93DF93CDB7DEB7CA1BDB0B5B
:102970000FB6F894DEBF0FBECDBF09942A88398800
:1029800048885F846E847D848C849B84AA84B98407
:10299000C884DF80EE80FD800C811B81AA81B98113
:1029A000CE0FD11D0FB6F894DEBF0FBECDBFED0127
:1029B0000895052E97FB1EF400940E94F01457FD15
:1029C00007D00E94F81407FC03D04EF40C94F014C6
:1029D00050954095309521953F4F4F4F5F4F08954B
:1029E00090958095709561957F4F8F4F9F4F08957B
:1029F000A1E21A2EAA1BBB1BFD010DC0AA1FBB1F03
:102A0000EE1FFF1FA217B307E407F50720F0A21B74
:102A1000B30BE40BF50B661F771F881F991F1A94E1
:102A200069F760957095809590959B01AC01BD010B
:102A3000CF010895EE0FFF1F0590F491E02D09944A
:102A40000F931F93CF93DF938230910510F482E0B0
:102A500090E0E0915604F091570430E020E0B0E0BF
:102A6000A0E0309799F42115310509F44AC0281BDC
:102A7000390B24303105D8F58A819B8161157105A8
:102A800089F1FB0193838283FE0111C04081518152
:102A90000281138148175907E0F04817590799F444
:102AA000109761F012960C93129713961C9332961E
:102AB000CF01DF91CF911F910F910895009356049C
:102AC00010935704F4CF2115310551F042175307E5
:102AD00038F0A901DB019A01BD01DF01F801C1CF86
:102AE000EF01F9CF9093570480935604CDCFFE01A8
:102AF000E20FF31F81939193225031093983288388
:102B0000D7CF2091540430915504232B41F42091C8
:102B100020013091210130935504209354042091D9
:102B20001E0130911F012115310541F42DB73EB72B
:102B30004091220150912301241B350BE091540454
:102B4000F0915504E217F307A0F42E1B3F0B281752
:102B5000390778F0AC014E5F5F4F2417350748F016
:102B60004E0F5F1F509355044093540481939193EB
:102B70009FCFF0E0E0E09CCFCF93DF930097E9F0A8
:102B8000FC01329713821282A0915604B09157042F
:102B9000ED0130E020E01097A1F420813181820F17
:102BA000931F20915404309155042817390709F0D8
:102BB00061C0F0935504E0935404DF91CF910895E0
:102BC000EA01CE17DF07E8F54A815B819E014115D6
:102BD0005105B1F7E901FB83EA8349915991C40F8B
:102BE000D51FEC17FD0761F4808191810296840F57
:102BF000951FE90199838883828193819B838A83CE
:102C0000F0E0E0E012968D919C9113970097B9F552
:102C10002D913C911197CD010296820F931F209127
:102C20005404309155042817390739F6309751F577
:102C30001092570410925604B0935504A093540474
:102C4000BCCFD383C28340815181840F951FC817A5
:102C5000D90761F44E5F5F4F88819981480F591FF2
:102C6000518340838A819B8193838283211531051F
:102C700009F0B0CFF0935704E09356049ECFFD01C6
:102C8000DC01C0CF13821282D7CFB0E0A0E0EBE42A
:102C9000F6E10C94A4148C01009751F4CB010E942E
:102CA00020158C01C801CDB7DEB7E0E10C94C0144B
:102CB000FC01E60FF71F9C0122503109E217F307D0
:102CC00008F49DC0D901CD91DC911197C617D707A3
:102CD00098F0C530D10530F3CE01049786179707D9
:102CE00008F3C61BD70B2297C193D1936D937C93A6
:102CF000CF010E94BC15D6CF5B01AC1ABD0A4C01B6
:102D00008C0E9D1EA0915604B0915704512C412C5D
:102D1000F12CE12C109731F58091540490915504D9
:102D20008815990509F05CC04616570608F058C08A
:102D300080911E0190911F01009741F48DB79EB7BD
:102D40004091220150912301841B950BE817F9074C
:102D500008F055C0F0935504E0935404F9017183D1
:102D60006083A0CF8D919C91119712966C901297D1
:102D700013967C901397A815B90559F56C0142E09C
:102D8000C40ED11CCA14DB0420F1AC014A195B0942
:102D9000DA011296159780F0628273825183408324
:102DA000D9016D937C93E114F10471F0D70113966E
:102DB000FC93EE93129776CF22968C0F9D1FF9010C
:102DC00091838083F301EFCFF0935704E09356048F
:102DD00069CF4816590608F42C017D01D3019ACF1A
:102DE000CB010E9420157C01009749F0AE01B8018B
:102DF0000E940A17C8010E94BC15870153CF10E03A
:102E000000E050CF9111089581568A5108F4805204
:102E100085580895FB01DC0102C001900D924150DC
:102E20005040D8F70895FB01DC018D910190801985
:102E30000110D9F3990B0895FB01DC0101900D926B
:102E40000020E1F70895FB01DC014150504030F0D3
:102E50008D910190801919F40020B9F7881B990B06
:102E6000089510E0C3E6D0E004C0FE010E941A15E8
:102E70002196C436D107C9F7F894FFCF30383036E1
:102E800001FF020100000E0F1011313233413435C1
:102E90003642373839432A30234400005804800032
:102EA00000004000140054000000000013018204E0
:102EB000B4006001E500C300D700000000006C050D
:102EC0003F05830615053805250516050000000099
:102ED00049044D04510400000000DF087C08860608
:102EE00000000000D30A82048306820636332031B4
:102EF000342039322030340020300020002D2D2D98
:102F00002D2D4E6578474F2D2D2D2D2D2D004265F1
:102F1000796F6E4420205061796D656E742773005F
:102F200054617020596F75722043617264210043AF
:102F3000617264204465746563746564203A290095
:102F4000456E7465722050696E3A0050726F636509
:102F50007373696E67004361726420496E76616CB9
:102F600069642100506C65617365205363616E2054
:102F700061005661696C642020436172642E002AEE
:102F80000050696E2041636365707465642E00545F
:102F900072616E73616374696F6E00436F6D706C04
:102FA000657465642E0057726F6E672050696E00FD
:0C2FB000456E746572656420203A2800AC
:107E0000112484B714BE81FFF0D085E080938100F7
:107E100082E08093C00088E18093C10086E0809377
:107E2000C20080E18093C4008EE0C9D0259A86E02C
:107E300020E33CEF91E0309385002093840096BBD3
:107E4000B09BFECF1D9AA8958150A9F7CC24DD24C4
:107E500088248394B5E0AB2EA1E19A2EF3E0BF2EE7
:107E6000A2D0813461F49FD0082FAFD0023811F036
:107E7000013811F484E001C083E08DD089C08234E0
:107E800011F484E103C0853419F485E0A6D080C0E4
:107E9000853579F488D0E82EFF2485D0082F10E0AE
:107EA000102F00270E291F29000F111F8ED06801E7
:107EB0006FC0863521F484E090D080E0DECF843638
:107EC00009F040C070D06FD0082F6DD080E0C81688
:107ED00080E7D80618F4F601B7BEE895C0E0D1E017
:107EE00062D089930C17E1F7F0E0CF16F0E7DF06D8
:107EF00018F0F601B7BEE89568D007B600FCFDCFD4
:107F0000A601A0E0B1E02C9130E011968C91119780
:107F100090E0982F8827822B932B1296FA010C0160
:107F200087BEE89511244E5F5F4FF1E0A038BF0790
:107F300051F7F601A7BEE89507B600FCFDCF97BE46
:107F4000E89526C08437B1F42ED02DD0F82E2BD052
:107F50003CD0F601EF2C8F010F5F1F4F84911BD097
:107F6000EA94F801C1F70894C11CD11CFA94CF0C13
:107F7000D11C0EC0853739F428D08EE10CD085E9AC
:107F80000AD08FE07ACF813511F488E018D01DD067
:107F900080E101D065CF982F8091C00085FFFCCF94
:107FA0009093C60008958091C00087FFFCCF809118
:107FB000C00084FD01C0A8958091C6000895E0E648
:107FC000F0E098E1908380830895EDDF803219F02E
:107FD00088E0F5DFFFCF84E1DECF1F93182FE3DFCA
:107FE0001150E9F7F2DF1F91089580E0E8DFEE27F6
:047FF000FF270994CA
:027FFE00040479
:00000001FF
